{
  "contractName": "Faucet",
  "abi": [
    {
      "inputs": [],
      "stateMutability": "nonpayable",
      "type": "constructor"
    },
    {
      "inputs": [],
      "name": "funds",
      "outputs": [
        {
          "internalType": "uint256",
          "name": "",
          "type": "uint256"
        }
      ],
      "stateMutability": "view",
      "type": "function",
      "constant": true
    },
    {
      "inputs": [],
      "name": "manager",
      "outputs": [
        {
          "internalType": "address",
          "name": "",
          "type": "address"
        }
      ],
      "stateMutability": "view",
      "type": "function",
      "constant": true
    },
    {
      "inputs": [],
      "name": "numOfFunders",
      "outputs": [
        {
          "internalType": "uint256",
          "name": "",
          "type": "uint256"
        }
      ],
      "stateMutability": "view",
      "type": "function",
      "constant": true
    },
    {
      "stateMutability": "payable",
      "type": "receive",
      "payable": true
    },
    {
      "inputs": [],
      "name": "addFunds",
      "outputs": [],
      "stateMutability": "payable",
      "type": "function",
      "payable": true
    }
  ],
  "bytecode": "0x60806040526103e860005534801561001657600080fd5b5033600160006101000a81548173ffffffffffffffffffffffffffffffffffffffff021916908373ffffffffffffffffffffffffffffffffffffffff160217905550610369806100676000396000f3fe6080604052600436106100435760003560e01c8063481c6a751461004f578063a26759cb1461007a578063af7f2c9b14610084578063c89f2ce4146100af5761004a565b3661004a57005b600080fd5b34801561005b57600080fd5b506100646100da565b604051610071919061026d565b60405180910390f35b610082610100565b005b34801561009057600080fd5b50610099610220565b6040516100a691906102a1565b60405180910390f35b3480156100bb57600080fd5b506100c4610226565b6040516100d191906102a1565b60405180910390f35b600160009054906101000a900473ffffffffffffffffffffffffffffffffffffffff1681565b6000339050600360008273ffffffffffffffffffffffffffffffffffffffff1673ffffffffffffffffffffffffffffffffffffffff16815260200190815260200160002060009054906101000a900460ff1661021d5760006002600081548092919061016b906102eb565b9190505590506001600360008473ffffffffffffffffffffffffffffffffffffffff1673ffffffffffffffffffffffffffffffffffffffff16815260200190815260200160002060006101000a81548160ff021916908315150217905550816004600083815260200190815260200160002060006101000a81548173ffffffffffffffffffffffffffffffffffffffff021916908373ffffffffffffffffffffffffffffffffffffffff160217905550505b50565b60025481565b60005481565b600073ffffffffffffffffffffffffffffffffffffffff82169050919050565b60006102578261022c565b9050919050565b6102678161024c565b82525050565b6000602082019050610282600083018461025e565b92915050565b6000819050919050565b61029b81610288565b82525050565b60006020820190506102b66000830184610292565b92915050565b7f4e487b7100000000000000000000000000000000000000000000000000000000600052601160045260246000fd5b60006102f682610288565b91507fffffffffffffffffffffffffffffffffffffffffffffffffffffffffffffffff8203610328576103276102bc565b5b60018201905091905056fea2646970667358221220efa9d77613a929644667f658239664bf4d49fad3194b5a12d343e7f4bfb5502a64736f6c63430008110033",
  "immutableReferences": {},
  "source": "// SPDX-License-Identifier: MIT\r\npragma solidity ^0.8.17;\r\n\r\ncontract Faucet{\r\n    uint public funds = 1000;\r\n    address public manager;\r\n\r\n    uint public numOfFunders;\r\n\r\n    mapping(address => bool) private funders;\r\n    mapping(uint => address) private lutFunders;\r\n\r\n    constructor() {\r\n        manager = msg.sender;\r\n    }\r\n\r\n    receive() external payable {\r\n        \r\n    }\r\n\r\n    function addFunds() external payable {\r\n    address funder = msg.sender;\r\n\r\n    if (!funders[funder]) {\r\n      uint index = numOfFunders++;\r\n      funders[funder] = true;\r\n      lutFunders[index] = funder;\r\n    }\r\n  }\r\n}",
  "sourcePath": "C:\\tests projects\\blockchain\\faucet\\contracts\\Faucet.sol",
  "compiler": {
    "name": "solc",
    "version": "0.8.17+commit.8df45f5f.Emscripten.clang"
  },
  "schemaVersion": "3.4.16",
  "updatedAt": "2026-01-27T16:45:15.813Z",
  "networkType": "ethereum",
  "devdoc": {
    "kind": "dev",
    "methods": {},
    "version": 1
  },
  "userdoc": {
    "kind": "user",
    "methods": {},
    "version": 1
  }
}